{
  "contractName": "Faucet",
  "abi": [
    {
      "inputs": [],
      "name": "numOfFounders",
      "outputs": [
        {
          "internalType": "uint256",
          "name": "",
          "type": "uint256"
        }
      ],
      "stateMutability": "view",
      "type": "function"
    },
    {
      "inputs": [],
      "name": "owner",
      "outputs": [
        {
          "internalType": "address",
          "name": "",
          "type": "address"
        }
      ],
      "stateMutability": "view",
      "type": "function"
    },
    {
      "inputs": [],
      "name": "test3",
      "outputs": [
        {
          "internalType": "uint256",
          "name": "",
          "type": "uint256"
        }
      ],
      "stateMutability": "pure",
      "type": "function"
    },
    {
      "inputs": [],
      "name": "testNum",
      "outputs": [
        {
          "internalType": "uint256",
          "name": "",
          "type": "uint256"
        }
      ],
      "stateMutability": "view",
      "type": "function"
    },
    {
      "stateMutability": "payable",
      "type": "receive"
    },
    {
      "inputs": [],
      "name": "emitLog",
      "outputs": [
        {
          "internalType": "bytes32",
          "name": "",
          "type": "bytes32"
        }
      ],
      "stateMutability": "pure",
      "type": "function"
    },
    {
      "inputs": [],
      "name": "addFunds",
      "outputs": [],
      "stateMutability": "payable",
      "type": "function"
    },
    {
      "inputs": [],
      "name": "test1",
      "outputs": [],
      "stateMutability": "nonpayable",
      "type": "function"
    },
    {
      "inputs": [],
      "name": "test2",
      "outputs": [],
      "stateMutability": "nonpayable",
      "type": "function"
    },
    {
      "inputs": [
        {
          "internalType": "uint256",
          "name": "withdralAmount",
          "type": "uint256"
        }
      ],
      "name": "withdraw",
      "outputs": [],
      "stateMutability": "nonpayable",
      "type": "function"
    },
    {
      "inputs": [],
      "name": "getAllFunders",
      "outputs": [
        {
          "internalType": "address[]",
          "name": "",
          "type": "address[]"
        }
      ],
      "stateMutability": "view",
      "type": "function"
    },
    {
      "inputs": [
        {
          "internalType": "uint8",
          "name": "index",
          "type": "uint8"
        }
      ],
      "name": "getFunderAtIndex",
      "outputs": [
        {
          "internalType": "address",
          "name": "",
          "type": "address"
        }
      ],
      "stateMutability": "view",
      "type": "function"
    }
  ],
  "bytecode": "0x608060405234801561001057600080fd5b50336000806101000a81548173ffffffffffffffffffffffffffffffffffffffff021916908373ffffffffffffffffffffffffffffffffffffffff1602179055506064600181905550610b67806100686000396000f3fe6080604052600436106100a05760003560e01c80636fbbb55d116100645780636fbbb55d1461016b5780638da5cb5b14610196578063a26759cb146101c1578063ae28f1ed146101cb578063f42c13bf146101f6578063ffd4456314610221576100a7565b80630a8e8e01146100ac5780630a93cf33146100d75780632e1a7d4d1461011457806366e41cb71461013d5780636b59084d14610154576100a7565b366100a757005b600080fd5b3480156100b857600080fd5b506100c161024c565b6040516100ce91906108d2565b60405180910390f35b3480156100e357600080fd5b506100fe60048036038101906100f99190610715565b610255565b60405161010b919061083a565b60405180910390f35b34801561012057600080fd5b5061013b600480360381019061013691906106e8565b610295565b005b34801561014957600080fd5b5061015261032c565b005b34801561016057600080fd5b506101696103bc565b005b34801561017757600080fd5b5061018061044c565b60405161018d9190610855565b60405180910390f35b3480156101a257600080fd5b506101ab610546565b6040516101b8919061083a565b60405180910390f35b6101c961056a565b005b3480156101d757600080fd5b506101e061068a565b6040516101ed91906108d2565b60405180910390f35b34801561020257600080fd5b5061020b610690565b6040516102189190610877565b60405180910390f35b34801561022d57600080fd5b506102366106b8565b60405161024391906108d2565b60405180910390f35b60006064905090565b6000600460008360ff16815260200190815260200160002060009054906101000a900473ffffffffffffffffffffffffffffffffffffffff169050919050565b8067016345785d8a00008111156102e1576040517f08c379a00000000000000000000000000000000000000000000000000000000081526004016102d8906108b2565b60405180910390fd5b3373ffffffffffffffffffffffffffffffffffffffff166108fc839081150290604051600060405180830381858888f19350505050158015610327573d6000803e3d6000fd5b505050565b60008054906101000a900473ffffffffffffffffffffffffffffffffffffffff1673ffffffffffffffffffffffffffffffffffffffff163373ffffffffffffffffffffffffffffffffffffffff16146103ba576040517f08c379a00000000000000000000000000000000000000000000000000000000081526004016103b190610892565b60405180910390fd5b565b60008054906101000a900473ffffffffffffffffffffffffffffffffffffffff1673ffffffffffffffffffffffffffffffffffffffff163373ffffffffffffffffffffffffffffffffffffffff161461044a576040517f08c379a000000000000000000000000000000000000000000000000000000000815260040161044190610892565b60405180910390fd5b565b6060600060025467ffffffffffffffff81111561046c5761046b610a31565b5b60405190808252806020026020018201604052801561049a5781602001602082028036833780820191505090505b50905060005b60025481101561053e576004600082815260200190815260200160002060009054906101000a900473ffffffffffffffffffffffffffffffffffffffff168282815181106104f1576104f0610a02565b5b602002602001019073ffffffffffffffffffffffffffffffffffffffff16908173ffffffffffffffffffffffffffffffffffffffff168152505080806105369061098a565b9150506104a0565b508091505090565b60008054906101000a900473ffffffffffffffffffffffffffffffffffffffff1681565b6000339050600360008273ffffffffffffffffffffffffffffffffffffffff1673ffffffffffffffffffffffffffffffffffffffff16815260200190815260200160002060009054906101000a900460ff16610687576000600260008154809291906105d59061098a565b9190505590506001600360008473ffffffffffffffffffffffffffffffffffffffff1673ffffffffffffffffffffffffffffffffffffffff16815260200190815260200160002060006101000a81548160ff021916908315150217905550816004600083815260200190815260200160002060006101000a81548173ffffffffffffffffffffffffffffffffffffffff021916908373ffffffffffffffffffffffffffffffffffffffff160217905550505b50565b60015481565b60007f48656c6c6f20776f726c64000000000000000000000000000000000000000000905090565b60025481565b6000813590506106cd81610b03565b92915050565b6000813590506106e281610b1a565b92915050565b6000602082840312156106fe576106fd610a60565b5b600061070c848285016106be565b91505092915050565b60006020828403121561072b5761072a610a60565b5b6000610739848285016106d3565b91505092915050565b600061074e838361075a565b60208301905092915050565b61076381610937565b82525050565b61077281610937565b82525050565b6000610783826108fd565b61078d8185610915565b9350610798836108ed565b8060005b838110156107c95781516107b08882610742565b97506107bb83610908565b92505060018101905061079c565b5085935050505092915050565b6107df81610949565b82525050565b60006107f2602183610926565b91506107fd82610a65565b604082019050919050565b6000610815602283610926565b915061082082610ab4565b604082019050919050565b61083481610973565b82525050565b600060208201905061084f6000830184610769565b92915050565b6000602082019050818103600083015261086f8184610778565b905092915050565b600060208201905061088c60008301846107d6565b92915050565b600060208201905081810360008301526108ab816107e5565b9050919050565b600060208201905081810360008301526108cb81610808565b9050919050565b60006020820190506108e7600083018461082b565b92915050565b6000819050602082019050919050565b600081519050919050565b6000602082019050919050565b600082825260208201905092915050565b600082825260208201905092915050565b600061094282610953565b9050919050565b6000819050919050565b600073ffffffffffffffffffffffffffffffffffffffff82169050919050565b6000819050919050565b600060ff82169050919050565b600061099582610973565b91507fffffffffffffffffffffffffffffffffffffffffffffffffffffffffffffffff8214156109c8576109c76109d3565b5b600182019050919050565b7f4e487b7100000000000000000000000000000000000000000000000000000000600052601160045260246000fd5b7f4e487b7100000000000000000000000000000000000000000000000000000000600052603260045260246000fd5b7f4e487b7100000000000000000000000000000000000000000000000000000000600052604160045260246000fd5b600080fd5b7f4f6e6c79206f776e65722063616e2063616c6c20746869732066756e6374696f60008201527f6e00000000000000000000000000000000000000000000000000000000000000602082015250565b7f43616e6e6f742077697468647261206d6f7265207468616e20302e312065746860008201527f6572000000000000000000000000000000000000000000000000000000000000602082015250565b610b0c81610973565b8114610b1757600080fd5b50565b610b238161097d565b8114610b2e57600080fd5b5056fea2646970667358221220c2c22a71505bc76e478805daeebc4b1349e8f2c245e67adfdf6ad26e4bd835c664736f6c63430008060033",
  "immutableReferences": {},
  "source": "// SPDX-License-Identifier: MIT\npragma solidity >=0.4.22 <0.9.0;\n\nimport \"./Owned.sol\";\nimport \"./Logger.sol\";\nimport \"./IFaucet.sol\";\n\n\n\ncontract Faucet is Owned, Logger, IFaucet{\n\n    //This is a special function\n    //It's called when you make a tx that doesn't spacify function name to call\n\n    //External function are part of the contract interface which means they can be called via contracts amd other txs.\n    uint public numOfFounders;\n    mapping(address => bool) private funders;\n    mapping(uint => address) private lutfunders;\n\n    // address public owner;\n\n    // constructor() {\n    //     owner = msg.sender;\n    // }\n\n   \n\n    modifier limitWithdraw(uint withdralAmount) {\n         require(\n            withdralAmount <= 100000000000000000, \n            \"Cannot withdra more than 0.1 ether\"\n            );\n\n            _;\n    }\n\n    receive() external payable {}\n\n    // function transferOwnership(address newOwner) external onlyOwner{\n    //     owner = newOwner;\n    // }\n\n    function emitLog() public override pure returns(bytes32) {\n        return \"Hello world\";\n    }\n\n    function addFunds() override external payable {\n        address funder = msg.sender;\n        // funders.push(msg.sender);\n        if (!funders[funder]) {\n          uint index = numOfFounders++;\n            // numOfFounders++;\n            funders[funder] = true;\n            lutfunders[index] = funder;\n        }\n        // uint index = numOfFounders++;\n        // funders[index] = msg.sender;\n    }\n    //Admin\n    function test1() external onlyOwner {\n        //some managing stuff that only admin should have access to\n    }\n\n    //Non-admin\n    function test2() external onlyOwner {\n            //some managing stuff that only admin should have access to\n        }\n    function withdraw(uint withdralAmount) external override limitWithdraw(withdralAmount){\n        payable(msg.sender).transfer(withdralAmount);\n    }\n\n    function getAllFunders() external view returns(address[] memory) {\n        // return funders;\n        address[] memory _funders = new address[](numOfFounders);\n        for (uint i = 0; i < numOfFounders; i++) {\n            _funders[i] = lutfunders[i];\n        }\n        return _funders;\n    }\n\n    function getFunderAtIndex(uint8 index) external view returns(address) {\n        // address[] memory _funders = getAllFunders();\n        return lutfunders[index];\n    }\n\n//  function justTesting() external pure returns(uint) {\n//     return 2 + 2;\n//  }\n\n //pure, view - read-only-call, no gas fee\n /// view - it indicates that the function will not alter the storage state in any way.\n // pure - even more strict, indicating that it won't even read the storage state\n}  \n\n//Block info\n//Nonce - a hash that when combiined with the minHash proofs that the block has gone through proof of work (POW)\n//8 bytes => 64 bits \n\n// 2000000000000000000",
  "sourcePath": "/Users/selldevice/Desktop/Blockchain/faucet/contracts/faucetContract.sol",
  "compiler": {
    "name": "solc",
    "version": "0.8.6+commit.11564f7e.Emscripten.clang"
  },
  "schemaVersion": "3.4.8",
  "updatedAt": "2022-07-30T02:39:11.621Z",
  "devdoc": {
    "kind": "dev",
    "methods": {},
    "version": 1
  },
  "userdoc": {
    "kind": "user",
    "methods": {},
    "version": 1
  }
}