{
  "contractName": "Storage",
  "abi": [
    {
      "inputs": [],
      "stateMutability": "nonpayable",
      "type": "constructor"
    },
    {
      "inputs": [],
      "name": "a",
      "outputs": [
        {
          "internalType": "uint8",
          "name": "",
          "type": "uint8"
        }
      ],
      "stateMutability": "view",
      "type": "function"
    },
    {
      "inputs": [
        {
          "internalType": "uint256",
          "name": "",
          "type": "uint256"
        }
      ],
      "name": "aa",
      "outputs": [
        {
          "internalType": "uint256",
          "name": "",
          "type": "uint256"
        }
      ],
      "stateMutability": "view",
      "type": "function"
    },
    {
      "inputs": [],
      "name": "b",
      "outputs": [
        {
          "internalType": "uint16",
          "name": "",
          "type": "uint16"
        }
      ],
      "stateMutability": "view",
      "type": "function"
    },
    {
      "inputs": [
        {
          "internalType": "address",
          "name": "",
          "type": "address"
        }
      ],
      "name": "bb",
      "outputs": [
        {
          "internalType": "uint256",
          "name": "",
          "type": "uint256"
        }
      ],
      "stateMutability": "view",
      "type": "function"
    },
    {
      "inputs": [],
      "name": "c",
      "outputs": [
        {
          "internalType": "address",
          "name": "",
          "type": "address"
        }
      ],
      "stateMutability": "view",
      "type": "function"
    },
    {
      "inputs": [
        {
          "internalType": "uint256",
          "name": "",
          "type": "uint256"
        }
      ],
      "name": "cc",
      "outputs": [
        {
          "internalType": "uint256",
          "name": "",
          "type": "uint256"
        }
      ],
      "stateMutability": "view",
      "type": "function"
    },
    {
      "inputs": [],
      "name": "e",
      "outputs": [
        {
          "internalType": "uint64",
          "name": "",
          "type": "uint64"
        }
      ],
      "stateMutability": "view",
      "type": "function"
    },
    {
      "inputs": [],
      "name": "f",
      "outputs": [
        {
          "internalType": "uint256",
          "name": "",
          "type": "uint256"
        }
      ],
      "stateMutability": "view",
      "type": "function"
    },
    {
      "inputs": [],
      "name": "g",
      "outputs": [
        {
          "internalType": "uint8",
          "name": "",
          "type": "uint8"
        }
      ],
      "stateMutability": "view",
      "type": "function"
    },
    {
      "inputs": [],
      "name": "h",
      "outputs": [
        {
          "internalType": "uint256",
          "name": "",
          "type": "uint256"
        }
      ],
      "stateMutability": "view",
      "type": "function"
    }
  ],
  "bytecode": "0x60806040526007600360006101000a81548160ff021916908360ff1602179055506014600360016101000a81548161ffff021916908361ffff16021790555073247b0745d98b074ebac1e6672e7031a86af514a36003806101000a81548173ffffffffffffffffffffffffffffffffffffffff021916908373ffffffffffffffffffffffffffffffffffffffff1602179055506001600360176101000a81548160ff021916908315150217905550600f600360186101000a81548167ffffffffffffffff021916908367ffffffffffffffff16021790555060c86004556028600560006101000a81548160ff021916908360ff16021790555061031560065534801561010a57600080fd5b506002600190806001815401808255809150506001900390600052602060002001600090919091909150556002600a908060018154018082558091505060019003906000526020600020016000909190919091505560026064908060018154018082558091505060019003906000526020600020016000909190919091505560046000806002815260200190815260200160002081905550600a600080600381526020019081526020016000208190555060646001600073d2466dbcb61e0b98675006a19581e77cc78b736f73ffffffffffffffffffffffffffffffffffffffff1673ffffffffffffffffffffffffffffffffffffffff16815260200190815260200160002081905550610507806102236000396000f3fe608060405234801561001057600080fd5b506004361061009e5760003560e01c8063c3da42b811610066578063c3da42b81461014b578063e1d9bbbd14610169578063e2179b8e14610199578063eb366c13146101b7578063ffae15ba146101e75761009e565b80630dbe671f146100a357806326121ff0146100c15780634df7e3d0146100df5780637323febe146100fd578063b8c9d3651461012d575b600080fd5b6100ab610205565b6040516100b89190610418565b60405180910390f35b6100c9610218565b6040516100d691906103e2565b60405180910390f35b6100e761021e565b6040516100f491906103c7565b60405180910390f35b61011760048036038101906101129190610334565b610232565b60405161012491906103e2565b60405180910390f35b61013561024a565b60405161014291906103e2565b60405180910390f35b610153610250565b60405161016091906103ac565b60405180910390f35b610183600480360381019061017e9190610307565b610274565b60405161019091906103e2565b60405180910390f35b6101a161028c565b6040516101ae9190610418565b60405180910390f35b6101d160048036038101906101cc9190610334565b61029f565b6040516101de91906103e2565b60405180910390f35b6101ef6102c3565b6040516101fc91906103fd565b60405180910390f35b600360009054906101000a900460ff1681565b60045481565b600360019054906101000a900461ffff1681565b60006020528060005260406000206000915090505481565b60065481565b60038054906101000a900473ffffffffffffffffffffffffffffffffffffffff1681565b60016020528060005260406000206000915090505481565b600560009054906101000a900460ff1681565b600281815481106102af57600080fd5b906000526020600020016000915090505481565b600360189054906101000a900467ffffffffffffffff1681565b6000813590506102ec816104a3565b92915050565b600081359050610301816104ba565b92915050565b60006020828403121561031d5761031c61049e565b5b600061032b848285016102dd565b91505092915050565b60006020828403121561034a5761034961049e565b5b6000610358848285016102f2565b91505092915050565b61036a81610433565b82525050565b61037981610445565b82525050565b61038881610473565b82525050565b6103978161047d565b82525050565b6103a681610491565b82525050565b60006020820190506103c16000830184610361565b92915050565b60006020820190506103dc6000830184610370565b92915050565b60006020820190506103f7600083018461037f565b92915050565b6000602082019050610412600083018461038e565b92915050565b600060208201905061042d600083018461039d565b92915050565b600061043e82610453565b9050919050565b600061ffff82169050919050565b600073ffffffffffffffffffffffffffffffffffffffff82169050919050565b6000819050919050565b600067ffffffffffffffff82169050919050565b600060ff82169050919050565b600080fd5b6104ac81610433565b81146104b757600080fd5b50565b6104c381610473565b81146104ce57600080fd5b5056fea2646970667358221220d9d7eba9e330731993c11c765ad42f2eff99abea3719bed1a442486487e0803d64736f6c63430008060033",
  "immutableReferences": {},
  "source": "// SPDX-License-Identifier: MIT\npragma solidity >=0.4.22 <0.9.0;\n\ncontract Storage {\n\n    mapping (uint => uint) public aa; // slot 0\n    mapping (address => uint) public bb; // slot 1\n\n    uint[] public cc; // slot 2\n\n    uint8 public a = 7;\n    uint16 public b = 20;\n    address public c = 0x247B0745d98B074EBAC1e6672E7031a86aF514a3;\n\n    bool d = true;\n    uint64 public e = 15;\n    uint256 public f = 200;\n    uint8 public g = 40;\n    uint256 public h = 789;\n\n     constructor () {\n        cc.push(1);\n        cc.push(10);\n        cc.push(100);\n\n        aa[2] =4;\n        aa[3] = 10;\n        bb[0xD2466DBcb61e0b98675006A19581E77Cc78B736f] = 100;\n    }\n    \n}",
  "sourcePath": "/Users/selldevice/Desktop/Blockchain/faucet/contracts/Storage.sol",
  "compiler": {
    "name": "solc",
    "version": "0.8.6+commit.11564f7e.Emscripten.clang"
  },
  "schemaVersion": "3.4.8",
  "updatedAt": "2022-07-30T02:39:11.596Z",
  "devdoc": {
    "kind": "dev",
    "methods": {},
    "version": 1
  },
  "userdoc": {
    "kind": "user",
    "methods": {},
    "version": 1
  }
}