{
  "contractName": "Test",
  "abi": [
    {
      "inputs": [
        {
          "internalType": "uint256",
          "name": "testNum",
          "type": "uint256"
        }
      ],
      "name": "test",
      "outputs": [
        {
          "internalType": "uint256",
          "name": "",
          "type": "uint256"
        }
      ],
      "stateMutability": "pure",
      "type": "function"
    }
  ],
  "bytecode": "0x608060405234801561001057600080fd5b50610122806100206000396000f3fe6080604052348015600f57600080fd5b506004361060285760003560e01c806329e99f0714602d575b600080fd5b60436004803603810190603f9190607b565b6057565b604051604e919060b0565b60405180910390f35b600060046040515050819050919050565b60008135905060758160d8565b92915050565b600060208284031215608e57608d60d3565b5b6000609a848285016068565b91505092915050565b60aa8160c9565b82525050565b600060208201905060c3600083018460a3565b92915050565b6000819050919050565b600080fd5b60df8160c9565b811460e957600080fd5b5056fea2646970667358221220f86ae89c3999571cd41e55f7eaff7569a15d891b1dcb374a4d1fa50dcc84063c64736f6c63430008060033",
  "immutableReferences": {},
  "source": "// SPDX-License-Identifier: MIT\npragma solidity >=0.4.22 <0.9.0;\n\n\ncontract Test {\n\n    function test(uint testNum) external pure returns (uint){\n\n        assembly {\n            let _num := 4\n            let _fmb := mload(0x40)\n        }\n\n       return testNum; \n    }\n\n}",
  "sourcePath": "/Users/selldevice/Desktop/Blockchain/faucet/contracts/Test.sol",
  "compiler": {
    "name": "solc",
    "version": "0.8.6+commit.11564f7e.Emscripten.clang"
  },
  "schemaVersion": "3.4.8",
  "updatedAt": "2022-07-30T02:39:11.608Z",
  "devdoc": {
    "kind": "dev",
    "methods": {},
    "version": 1
  },
  "userdoc": {
    "kind": "user",
    "methods": {},
    "version": 1
  }
}